:100000000C9434000C9451000C9451000C94510049
:100010000C9451000C9451000C9451000C9431013B
:100020000C9451000C9451000C9451000C9400015C
:100030000C9451000C9451000C94CF000C9451007E
:100040000C9451000C9451000C9451000C945100EC
:100050000C9451000C9451000C9451000C945100DC
:100060000C9451000C94510011241FBECFEFD8E026
:10007000DEBFCDBF11E0A0E0B1E0E2E4F7E002C0F6
:1000800005900D92A832B107D9F711E0A8E2B1E0CE
:1000900001C01D92AD32B107E1F70E948A010C94B4
:1000A0009F030C9400000F931F93CF93DF93EC01F9
:1000B00080917C00857E846080937C0080917A00B2
:1000C000806480937A0080917A0086FDFCCF6091F5
:1000D00078007091790080E090E00E94860220E034
:1000E00030E040E854E40E94180320E030EC4FE791
:1000F00054E40E941E026C837D838E839F8301E003
:1001000010E02A893B894C895D890E94140387FF8E
:1001100002C000E010E0198B088B8EA19FA18230F5
:10012000910561F08330910599F00197C9F416BCEF
:1001300080916E00826080936E0016C010928500E0
:100140001092840080916F00826080936F000CC0D9
:100150001092B2008091700082608093700004C0A1
:1001600081E090E00E949F0378949FB7F89480917B
:100170002A019FBF8823C9F310922A01EAA1FBA19B
:1001800088899989892B19F08081886002C08081D3
:10019000877F8083DF91CF911F910F9108951F92E8
:1001A0000F920FB60F9211242F933F938F939F932B
:1001B00080912801909129010196909329018093C3
:1001C000280180912A01813091F0209128013091FD
:1001D000290180912B0190912C012817390738F0C3
:1001E00081E080932A0110922901109228019F91A9
:1001F0008F913F912F910F900FBE0F901F901895E8
:100200001F920F920FB60F9211242F933F938F934B
:100210009F93809128019091290101969093290143
:100220008093280180912A01813091F0209128014A
:100230003091290180912B0190912C0128173907C9
:1002400038F081E080932A01109229011092280150
:100250009F918F913F912F910F900FBE0F901F9004
:1002600018951F920F920FB60F9211242F933F9360
:100270008F939F93809128019091290101969093EB
:1002800029018093280180912A01813091F02091E9
:1002900028013091290180912B0190912C01281780
:1002A000390738F081E080932A01109229011092D9
:1002B00028019F918F913F912F910F900FBE0F902A
:1002C0001F901895FC01539A8BE290E093A382A3B0
:1002D00085B5836085BD81E090E095A384A32AE085
:1002E00030E030932C0120932B0124B5226024BDF3
:1002F00029EF27BD97A386A3ACE7B0E08C918C9340
:10030000AAE7B0E08C9187688C9311A210A280E0DC
:1003100090E00895CF92DF92EF92FF9280E091E01B
:100320000E946201C12CD12C760160E070E0CB010B
:100330006093000170930101809302019093030187
:1003400080E091E00E9453008FEFC81AD80AE80AB3
:10035000F80AC701B6010E9486022FE632E143E0A7
:100360005BE30E94180320E030E0A9010E94BA017B
:10037000DFCF5058BB27AA270ED01CC10DD130F0BB
:1003800012D120F031F49F3F11F41EF402C10EF49B
:10039000E095E7FBF8C0E92F1ED180F3BA1762079A
:1003A00073078407950718F071F49EF536C10EF4B3
:1003B000E0950B2EBA2FA02D0B01B90190010C0175
:1003C000CA01A0011124FF27591B99F0593F50F48D
:1003D000503E68F11A16F040A22F232F342F4427E5
:1003E000585FF3CF469537952795A795F0405395DD
:1003F000C9F77EF41F16BA0B620B730B840BBAF0AD
:100400009150A1F0FF0FBB1F661F771F881FC2F717
:100410000EC0BA0F621F731F841F48F4879577952B
:100420006795B795F7959E3F08F0B3CF9395880FE2
:1004300008F09927EE0F9795879508950CD0BAC0CC
:10044000B2D040F0A9D030F021F45F3F19F09BC04A
:100450005111E4C09EC0BFD098F39923C9F355232E
:10046000B1F3951B550BBB27AA27621773078407A7
:1004700038F09F5F5F4F220F331F441FAA1FA9F35D
:1004800033D00E2E3AF0E0E830D091505040E6954F
:10049000001CCAF729D0FE2F27D0660F771F881FB0
:1004A000BB1F261737074807AB07B0E809F0BB0B9F
:1004B000802DBF01FF2793585F4F2AF09E3F5105C3
:1004C00068F061C0ABC05F3FECF3983EDCF386950B
:1004D00077956795B795F7959F5FC9F7880F911D39
:1004E0009695879597F90895E1E0660F771F881F25
:1004F000BB1F621773078407BA0720F0621B730BD8
:10050000840BBA0BEE1F88F7E0950895E89409C0B4
:1005100097FB3EF490958095709561957F4F8F4F36
:100520009F4F9923A9F0F92F96E9BB279395F6954C
:10053000879577956795B795F111F8CFFAF4BB0FCA
:1005400011F460FF1BC06F5F7F4F8F4F9F4F16C02E
:10055000882311F096E911C0772321F09EE8872FB8
:10056000762F05C0662371F096E8862F70E060E074
:100570002AF09A95660F771F881FDAF7880F9695ED
:10058000879597F9089597F99F6780E870E060E094
:1005900008959FEF80EC089500240A94161617061C
:1005A00018060906089500240A9412161306140664
:1005B00005060895092E0394000C11F4882352F0C7
:1005C000BB0F40F4BF2B11F460FF04C06F5F7F4F7F
:1005D0008F4F9F4F089557FD9058440F551F59F066
:1005E0005F3F71F04795880F97FB991F61F09F3F20
:1005F00079F087950895121613061406551FF2CF49
:100600004695F1DF08C0161617061806991FF1CF98
:1006100086957105610508940895E894BB276627BF
:100620007727CB0197F9089566D008F48FEF0895E6
:100630000BD0C0CFB1DF28F0B6DF18F0952309F05A
:10064000A2CFA7CF1124EACFC6DFA0F3959FD1F3A5
:10065000950F50E0551F629FF001729FBB27F00D70
:10066000B11D639FAA27F00DB11DAA1F649F6627C5
:10067000B00DA11D661F829F2227B00DA11D621F14
:10068000739FB00DA11D621F839FA00D611D221FCE
:10069000749F3327A00D611D231F849F600D211DB2
:1006A000822F762F6A2F11249F5750408AF0E1F055
:1006B00088234AF0EE0FFF1FBB1F661F771F881F9E
:1006C00091505040A9F79E3F510570F05CCFA6CFE6
:1006D0005F3FECF3983EDCF3869577956795B79589
:1006E000F795E7959F5FC1F7FE2B880F911D9695B3
:1006F000879597F90895990F0008550FAA0BE0E820
:10070000FEEF16161706E807F907C0F012161306D3
:10071000E407F50798F0621B730B840B950B39F413
:100720000A2661F0232B242B252B21F408950A2679
:1007300009F4A140A6958FEF811D811D0895F894BD
:02074000FFCFE9
:1007420000000000000000000000000000000000A7
:10075200000000806D440AD7233C02000100000023
:0807620000000000000000008F
:00000001FF
