:100000000C9434000C9451000C9451000C94510049
:100010000C9451000C9451000C9451000C94E50088
:100020000C9451000C9451000C9451000C94B400A9
:100030000C9451000C9451000C9483000C945100CA
:100040000C9451000C9451000C9451000C945100EC
:100050000C9451000C9451000C9451000C945100DC
:100060000C9451000C94510011241FBECFEFD8E026
:10007000DEBFCDBF11E0A0E0B1E0E6ECF5E002C0EC
:1000800005900D92A031B107D9F721E0A0E1B1E0D0
:1000900001C01D92A531B207E1F70E9441010C9405
:1000A000E1020C9400008230910561F083309105EB
:1000B00099F00197C9F416BC80916E00826080931C
:1000C0006E0016C0109285001092840080916F001F
:1000D000826080936F000CC01092B200809170001B
:1000E00082608093700004C081E090E00E94E10291
:1000F00078949FB7F894809112019FBF8823C9F329
:100100001092120108951F920F920FB60F921124B0
:100110002F933F938F939F938091100190911101A2
:10012000019690931101809310018091120181300A
:1001300091F0209110013091110180911301909163
:1001400014012817390738F081E0809312011092CA
:100150001101109210019F918F913F912F910F905B
:100160000FBE0F901F9018951F920F920FB60F920F
:1001700011242F933F938F939F938091100190911F
:100180001101019690931101809310018091120149
:10019000813091F020911001309111018091130173
:1001A000909114012817390738F081E080931201EB
:1001B00010921101109210019F918F913F912F91F8
:1001C0000F900FBE0F901F9018951F920F920FB6B1
:1001D0000F9211242F933F938F939F93809110013F
:1001E00090911101019690931101809310018091DB
:1001F0001201813091F02091100130911101809114
:100200001301909114012817390738F081E0809389
:10021000120110921101109210019F918F913F9144
:100220002F910F900FBE0F901F901895DC01E0E00A
:10023000F0E08081806180831B961C921E921A9749
:10024000E1E8F0E080818360808322E030E01D9669
:100250003C932E931C9781E090E09093140180933F
:10026000130180818860808389EF90E090938900FA
:10027000809388001F963C932E931E9780E090E019
:100280000895CF92DF92EF92FF9280E091E00E947A
:100290001601C12CD12C760160E070E0CB01609397
:1002A00000017093010180930201909303018091FA
:1002B0000E0190910F010E945300E0910A01F0910C
:1002C0000B018081806180838FEFC81AD80AE80A09
:1002D000F80AC701B6010E94E6012FE632E143E0C9
:1002E0005BE30E94740220E030E0A9010E947A01E1
:1002F000D6CF5058BB27AA270E9491010C943A02EE
:100300000E942C0238F00E94330220F039F49F3F03
:1003100019F426F40C9429020EF4E095E7FB0C94F2
:100320002302E92F0E944B0258F3BA1762077307A2
:100330008407950720F079F4A6F50C946D020EF46D
:10034000E0950B2EBA2FA02D0B01B90190010C01E5
:10035000CA01A0011124FF27591B99F0593F50F4FD
:10036000503E68F11A16F040A22F232F342F442755
:10037000585FF3CF469537952795A795F04053954D
:10038000C9F77EF41F16BA0B620B730B840BBAF01D
:100390009150A1F0FF0FBB1F661F771F881FC2F788
:1003A0000EC0BA0F621F731F841F48F4879577959C
:1003B0006795B795F7959E3F08F0B0CF9395880F56
:1003C00008F09927EE0F979587950895E89409C04E
:1003D00097FB3EF490958095709561957F4F8F4F78
:1003E0009F4F9923A9F0F92F96E9BB279395F6958E
:1003F000879577956795B795F111F8CFFAF4BB0F0C
:1004000011F460FF1BC06F5F7F4F8F4F9F4F16C06F
:10041000882311F096E911C0772321F09EE8872FF9
:10042000762F05C0662371F096E8862F70E060E0B5
:100430002AF09A95660F771F881FDAF7880F96952E
:10044000879597F9089597F99F6780E870E060E0D5
:1004500008959FEF80EC089500240A94161617065D
:1004600018060906089500240A94121613061406A5
:1004700005060895092E0394000C11F4882352F008
:10048000BB0F40F4BF2B11F460FF04C06F5F7F4FC0
:100490008F4F9F4F089557FD9058440F551F59F0A7
:1004A0005F3F71F04795880F97FB991F61F09F3F61
:1004B00079F087950895121613061406551FF2CF8A
:1004C0004695F1DF08C0161617061806991FF1CFDA
:1004D00086957105610508940895E894BB27662701
:1004E0007727CB0197F908950E9487020C943A026E
:1004F0000E942C0238F00E94330220F0952311F064
:100500000C9423020C94290211240C946E020E9474
:100510004B0270F3959FC1F3950F50E0551F629FFA
:10052000F001729FBB27F00DB11D639FAA27F00D4C
:10053000B11DAA1F649F6627B00DA11D661F829F73
:100540002227B00DA11D621F739FB00DA11D621F58
:10055000839FA00D611D221F749F3327A00D611D75
:10056000231F849F600D211D822F762F6A2F112457
:100570009F5750409AF0F1F088234AF0EE0FFF1F8A
:10058000BB1F661F771F881F91505040A9F79E3FE1
:10059000510580F00C9423020C946E025F3FE4F34B
:1005A000983ED4F3869577956795B795F795E79537
:1005B0009F5FC1F7FE2B880F911D9695879597F940
:0605C0000895F894FFCF3E
:1005C6000000000000006F12033B00000000000066
:00000001FF
