:100000000C9434000C9451000C9451000C94510049
:100010000C9451000C9451000C9451000C94170254
:100020000C9451000C9451000C9451000C94E60176
:100030000C9451000C9451000C94B5010C94510097
:100040000C9451000C9451000C9451000C945100EC
:100050000C9451000C9451000C9451000C945100DC
:100060000C9451000C94510011241FBECFEFD8E026
:10007000DEBFCDBF11E0A0E0B1E0EAE5F9E002C0EB
:1000800005900D92A235B107D9F711E0A2E5B1E0D4
:1000900001C01D92A735B107E1F70E9488020C94B8
:1000A000AB040C94000080917C00857E826080937C
:1000B0007C0080917A00806480937A0080917A003D
:1000C00086FDFCCF809178009091790008954F9241
:1000D0005F926F927F928F929F92AF92BF92CF92D8
:1000E000DF92EF92FF920F931F93CF93DF938C01D8
:1000F0000E94530060E080E090E00E949D040E9416
:100100005300BC0180E090E00E94840320E030E0D6
:1001100040E854E40E94160420E030EC4FE754E439
:100120000E941C034B015C01D80114966D937D93D2
:100130008D939C931797C1E0D0E0D4962D913D917B
:100140004D915C91D7970E94120487FF02C0C0E0D6
:10015000D0E0F801D3A7C2A7CD2B39F0412C512C08
:1001600090E8692E9FE3792E03C0412C512C320177
:10017000D8011C964D925D926D927C921F97C1E0C2
:10018000D0E0D8962D913D914D915C91DB97C301C4
:10019000B2010E94120487FF02C0C0E0D0E0F80163
:1001A000D5A3C4A3C1E0D0E020A931A942A953A995
:1001B000C501B4010E94120487FF02C0C0E0D0E074
:1001C000D8019996DC93CE939897CD2B39F0C12C1A
:1001D000D12C80E8E82E8FE3F82E03C0C12CD12C5F
:1001E0007601F801C086D186E286F386C1E0D0E0D0
:1001F000A3019201C701B6010E941204181614F05F
:10020000C0E0D0E0D8019396DC93CE939297C1E002
:10021000D0E09C962D913D914D915C919F97C501A9
:10022000B4010E94120487FF02C0C0E0D0E0F801D0
:10023000D7A3C6A3CD2B29F060E070E080E89FE350
:1002400003C060E070E0CB01D80150966D937D93C0
:100250008D939C935397C1E0D0E0A70196010E9433
:100260001204181614F0C0E0D0E0F801D1A3C0A326
:10027000E05BFF4F808191818230910561F0833096
:10028000910599F00197C9F416BC80916E008260C7
:1002900080936E0016C010928500109284008091A9
:1002A0006F00826080936F000CC01092B20080914A
:1002B000700082608093700004C081E090E00E9432
:1002C000AB0478949FB7F894809154019FBF882322
:1002D000C9F310925401F801E85BFF4F0190F081DF
:1002E000E02DD80190968D919C919197892B19F0D2
:1002F0008081826002C080818D7F8083F801E65B0F
:10030000FF4F0190F081E02DD80192968D919C9144
:100310009397892B19F08081846002C080818B7F44
:100320008083F801E45BFF4F0190F081E02DD8015C
:1003300094968D919C919597892B19F08081886076
:1003400002C08081877F8083DF91CF911F910F91C1
:10035000FF90EF90DF90CF90BF90AF909F908F90E5
:100360007F906F905F904F9008951F920F920FB6FD
:100370000F9211242F933F938F939F93809152015B
:100380009091530101969093530180935201809173
:100390005401813091F020915201309153018091AC
:1003A0005501909156012817390738F081E0809364
:1003B000540110925301109252019F918F913F91DD
:1003C0002F910F900FBE0F901F9018951F920F92B4
:1003D0000FB60F9211242F933F938F939F93809189
:1003E00052019091530101969093530180935201D1
:1003F00080915401813091F020915201309153014C
:1004000080915501909156012817390738F081E005
:100410008093540110925301109252019F918F9139
:100420003F912F910F900FBE0F901F9018951F9224
:100430000F920FB60F9211242F933F938F939F9398
:1004400080915201909153010196909353018093B2
:10045000520180915401813091F0209152013091EC
:10046000530180915501909156012817390738F0B2
:1004700081E08093540110925301109252019F9198
:100480008F913F912F910F900FBE0F901F90189555
:10049000ECE7F0E02081206C2083EAE7F0E02081A7
:1004A00027682083FC01EA5BFF4F11821082239AA8
:1004B000FC01E45BFF4F25E230E031832083229A88
:1004C000FC01E65BFF4F31832083219AFC01E85B4E
:1004D000FF4F3183208325B5236025BDFC01E25BFE
:1004E000FF4F21E030E03183208342E050E0509321
:1004F00056014093550144B5426044BD49EF47BDA4
:10050000FC01E05BFF4F3183208380E090E00895A1
:10051000CF92DF92EF92FF9280E091E00E9448023A
:10052000C12CD12C760160E070E0CB01609300011A
:1005300070930101809302019093030180E091E0A8
:100540000E9467008FEFC81AD80AE80AF80AC701A4
:10055000B6010E9484032FE632E143E05BE30E9490
:10056000160420E030E0A9010E94B802DFCF505805
:10057000BB27AA270ED01CC10DD130F012D120F01C
:1005800031F49F3F11F41EF402C10EF4E095E7FB35
:10059000F8C0E92F1ED180F3BA17620773078407EA
:1005A000950718F071F49EF536C10EF4E0950B2E08
:1005B000BA2FA02D0B01B90190010C01CA01A001B5
:1005C0001124FF27591B99F0593F50F4503E68F110
:1005D0001A16F040A22F232F342F4427585FF3CF51
:1005E000469537952795A795F0405395C9F77EF422
:1005F0001F16BA0B620B730B840BBAF09150A1F06B
:10060000FF0FBB1F661F771F881FC2F70EC0BA0FF0
:10061000621F731F841F48F4879577956795B79578
:10062000F7959E3F08F0B3CF9395880F08F0992770
:10063000EE0F9795879508950CD0BAC0B2D040F0D0
:10064000A9D030F021F45F3F19F09BC05111E4C0F4
:100650009EC0BFD098F39923C9F35523B1F3951BDE
:10066000550BBB27AA2762177307840738F09F5FD3
:100670005F4F220F331F441FAA1FA9F333D00E2E42
:100680003AF0E0E830D091505040E695001CCAF7AF
:1006900029D0FE2F27D0660F771F881FBB1F261774
:1006A00037074807AB07B0E809F0BB0B802DBF0147
:1006B000FF2793585F4F2AF09E3F510568F061C0B5
:1006C000ABC05F3FECF3983EDCF38695779567957A
:1006D000B795F7959F5FC9F7880F911D96958795F8
:1006E00097F90895E1E0660F771F881FBB1F621717
:1006F00073078407BA0720F0621B730B840BBA0BD5
:10070000EE1F88F7E0950895E89409C097FB3EF442
:1007100090958095709561957F4F8F4F9F4F99234E
:10072000A9F0F92F96E9BB279395F69587957795CC
:100730006795B795F111F8CFFAF4BB0F11F460FF8C
:100740001BC06F5F7F4F8F4F9F4F16C0882311F0E4
:1007500096E911C0772321F09EE8872F762F05C0F8
:10076000662371F096E8862F70E060E02AF09A9593
:10077000660F771F881FDAF7880F9695879597F988
:10078000089597F99F6780E870E060E008959FEF13
:1007900080EC089500240A94161617061806090618
:1007A000089500240A9412161306140605060895E7
:1007B000092E0394000C11F4882352F0BB0F40F46F
:1007C000BF2B11F460FF04C06F5F7F4F8F4F9F4FAF
:1007D000089557FD9058440F551F59F05F3F71F031
:1007E0004795880F97FB991F61F09F3F79F0879598
:1007F0000895121613061406551FF2CF4695F1DF21
:1008000008C0161617061806991FF1CF86957105B0
:10081000610508940895E894BB2766277727CB01E4
:1008200097F9089566D008F48FEF08950BD0C0CFE4
:10083000B1DF28F0B6DF18F0952309F0A2CFA7CFDB
:100840001124EACFC6DFA0F3959FD1F3950F50E0B6
:10085000551F629FF001729FBB27F00DB11D639F72
:10086000AA27F00DB11DAA1F649F6627B00DA11D18
:10087000661F829F2227B00DA11D621F739FB00DBE
:10088000A11D621F839FA00D611D221F749F33272E
:10089000A00D611D231F849F600D211D822F762FC7
:1008A0006A2F11249F5750408AF0E1F088234AF0C4
:1008B000EE0FFF1FBB1F661F771F881F9150504010
:1008C000A9F79E3F510570F05CCFA6CF5F3FECF3D8
:1008D000983EDCF3869577956795B795F795E795FC
:1008E0009F5FC1F7FE2B880F911D9695879597F90D
:1008F0000895990F0008550FAA0BE0E8FEEF1616B1
:100900001706E807F907C0F012161306E407F50703
:1009100098F0621B730B840B950B39F40A2661F077
:10092000232B242B252B21F408950A2609F4A1401A
:10093000A6958FEF811D811D0895262FF999FECF71
:100940001FBA92BD81BD20BD0FB6F894FA9AF99AEC
:0A0950000FBE01960895F894FFCF42
:10095A00000000000000000000000000000000008D
:10096A00000000000000000000000000000000007D
:10097A00000000000000000000000000000000006D
:10098A000000A043000061440000003F6F12033BD7
:10099A000500010000000000000000000000000047
:0209AA0000004B
:00000001FF
