:100000000C9434000C9451000C9451000C94510049
:100010000C9451000C9451000C9451000C942C0140
:100020000C9451000C9451000C9451000C94FB0062
:100030000C9451000C9451000C94CA000C94510083
:100040000C9451000C9451000C9451000C945100EC
:100050000C9451000C9451000C9451000C945100DC
:100060000C9451000C94510011241FBECFEFD8E026
:10007000DEBFCDBF11E0A0E0B1E0E4E5F7E002C0F3
:1000800005900D92A831B107D9F711E0A8E1B1E0D0
:1000900001C01D92AD31B107E1F70E94A4010C949B
:1000A000A8030C940000CF92DF92EF92FF92CF93BF
:1000B000DF93EC01C880D980EA80FB80C701B601DC
:1000C0000E9479029B01AC01C701B6010E94D301D5
:1000D0006B017C0120E030E040E05FE30E944103DF
:1000E00087FF03C080E090E002C084E690E09D833B
:1000F0008C8320E030E040E05FE3C701B6010E945E
:10010000380287FD03C080E090E002C084E690E002
:100110009F838E838E899F898230910561F0833021
:10012000910599F00197C9F416BC80916E00826028
:1001300080936E0016C0109285001092840080910A
:100140006F00826080936F000CC01092B2008091AB
:10015000700082608093700004C081E090E00E9493
:10016000A80378949FB7F89480911A019FBF8823C1
:10017000C9F310921A01EE85FF858C818083EA898C
:10018000FB898E818083DF91CF91FF90EF90DF908C
:10019000CF9008951F920F920FB60F9211242F93B4
:1001A0003F938F939F93809118019091190101962D
:1001B000909319018093180180911A01813091F078
:1001C000209118013091190180911B0190911C011F
:1001D0002817390738F081E080931A01109219012D
:1001E000109218019F918F913F912F910F900FBE08
:1001F0000F901F9018951F920F920FB60F92112417
:100200002F933F938F939F938091180190911901A1
:100210000196909319018093180180911A01813001
:1002200091F0209118013091190180911B0190915A
:100230001C012817390738F081E080931A011092C9
:100240001901109218019F918F913F912F910F905A
:100250000FBE0F901F9018951F920F920FB60F921E
:1002600011242F933F938F939F9380911801909126
:1002700019010196909319018093180180911A0138
:10028000813091F0209118013091190180911B016A
:1002900090911C012817390738F081E080931A01EA
:1002A00010921901109218019F918F913F912F91F7
:1002B0000F900FBE0F901F901895CF93DF93FC0106
:1002C000C1E8D0E088818D60888322E030E0318B06
:1002D000208B229A40E850E0DA018C9181628C9365
:1002E0008AE890E0DC0111961C921E921C92938B7E
:1002F000828B88818D60888335872487219ADA01F3
:100300008C9181688C93A8E8B0E011961C921E92A3
:100310001C92B787A68785B5836085BD21E030E054
:10032000358B248B8AE090E090931C0180931B0115
:1003300084B5826084BD89EF87BD378B268B80E0D2
:1003400090E0DF91CF910895CF92DF92EF92FF92EC
:1003500080E091E00E945D01C12CD12C760160E02B
:1003600070E0CB0160930001709301018093020162
:100370009093030180E091E00E9453008FEFC81A30
:10038000D80AE80AF80AC701B6010E943C022FE623
:1003900032E143E05BE30E94450320E030E0A90145
:1003A0000E94D401DFCF5058BB27AA270ED018C116
:1003B00009D130F00ED120F031F49F3F11F41EF43A
:1003C000FEC00EF4E095E7FBCBC0E92F1AD180F315
:1003D000BA17620773078407950718F071F49EF542
:1003E00049C10EF4E0950B2EBA2FA02D0B01B901D7
:1003F00090010C01CA01A0011124FF27591B99F09B
:10040000593F50F4503E68F11A16F040A22F232FA6
:10041000342F4427585FF3CF469537952795A795F6
:10042000F0405395C9F77EF41F16BA0B620B730B9D
:10043000840BBAF09150A1F0FF0FBB1F661F771F0E
:10044000881FC2F70EC0BA0F621F731F841F48F4C3
:10045000879577956795B795F7959E3F08F0B3CF49
:100460009395880F08F09927EE0F97958795089533
:1004700053D008F481E00895E89409C097FB3EF456
:1004800090958095709561957F4F8F4F9F4F9923E1
:10049000A9F0F92F96E9BB279395F695879577955F
:1004A0006795B795F111F8CFFAF4BB0F11F460FF1F
:1004B0001BC06F5F7F4F8F4F9F4F16C0882311F077
:1004C00096E911C0772321F09EE8872F762F05C08B
:1004D000662371F096E8862F70E060E02AF09A9526
:1004E000660F771F881FDAF7880F9695879597F91B
:1004F0000895A9D080F09F3740F491110EF0BBC051
:1005000060E070E080E89FEB089526F41B16611D03
:10051000711D811D2BC045C0990F0008550FAA0BF6
:10052000E0E8FEEF16161706E807F907C0F0121606
:100530001306E407F50798F0621B730B840B950B09
:1005400039F40A2661F0232B242B252B21F408955E
:100550000A2609F4A140A6958FEF811D811D0895FB
:1005600097F99F6780E870E060E00895882371F450
:10057000772321F09850872B762F07C0662311F43C
:1005800099270DC09051862B70E060E02AF09A9573
:10059000660F771F881FDAF7880F9695879597F96A
:1005A00008959F3F31F0915020F487957795679596
:1005B000B795880F911D9695879597F908959FEFA8
:1005C00080EC089500240A941616170618060906EA
:1005D000089500240A9412161306140605060895B9
:1005E000092E0394000C11F4882352F0BB0F40F441
:1005F000BF2B11F460FF04C06F5F7F4F8F4F9F4F81
:10060000089557FD9058440F551F59F05F3F71F002
:100610004795880F97FB991F61F09F3F79F0879569
:100620000895121613061406551FF2CF4695F1DFF2
:1006300008C0161617061806991FF1CF8695710582
:10064000610508940895E5DFA0F0BEE7B91788F4C6
:10065000BB279F3860F41616B11D672F782F8827A7
:10066000985FF7CF869577956795B11D93959639E5
:10067000C8F30895E894BB2766277727CB0197F93D
:1006800008954ADF08F48FEF08950BD0A9CF9ADFC1
:1006900028F09FDF18F0952309F062CF90CF112446
:1006A000EACFAFDFA0F3959FD1F3950F50E0551F30
:1006B000629FF001729FBB27F00DB11D639FAA27B7
:1006C000F00DB11DAA1F649F6627B00DA11D661F06
:1006D000829F2227B00DA11D621F739FB00DA11D27
:1006E000621F839FA00D611D221F749F3327A00DE1
:1006F000611D231F849F600D211D822F762F6A2F7D
:1007000011249F5750408AF0E1F088234AF0EE0F01
:10071000FF1FBB1F661F771F881F91505040A9F70E
:100720009E3F510570F01CCFA6CF5F3FECF3983E83
:10073000DCF3869577956795B795F795E7959F5F75
:10074000C1F7FE2B880F911D9695879597F908950F
:04075000F894FFCF4B
:1007540000000000000000000AD7233C0000000055
:0807640000000000000000008D
:00000001FF
